:100000000C9446000C9465000C9465000C946500FB
:100010000C9465000C9465000C9465000C946500CC
:100020000C9465000C9465000C9465000C946500BC
:100030000C9465000C9441010C9465000C946500CF
:100040000C9465000C9465000C9465000C9465009C
:100050000C9465000C9465000C9465000C9465008C
:100060000C9465000C9465000C9465000C9465007C
:100070000C9465000C9465000C9465000C9465006C
:100080000C9465000C9465000C94650011241FBE4F
:10009000CFEFD0E4DEBFCDBF11E0A0E0B1E0EEEBEA
:1000A000F3E000E00BBF02C007900D92A631B1074C
:1000B000D9F711E0A6E1B1E001C01D92A534B10766
:1000C000E1F70E94A1010C94DD010C940000CF9394
:1000D000C82F8A3019F48DE00E9467009091C0000B
:1000E00095FFFCCFC093C60080E090E0CF910895CB
:1000F000029718F481E090E002C080E090E0009761
:1001000021F08130910529F00EC024E020930101F7
:10011000089520910101243011F0220F01C021E047
:1001200020930101089524E020930101089502978E
:1001300018F481E090E002C080E090E0009721F0A8
:100140008130910529F00EC028E020930001089528
:1001500020910001222311F020E001C028E020932B
:100160000001089528E0209300010895029718F4F3
:1001700081E090E002C080E090E08130910531F4B0
:100180003091010120910001232B25B908958BE0C6
:10019000809381008DE790E09093890080938800A0
:1001A00082E080936F00109285001092840080910D
:1001B000020190910301A0910401B0910501809387
:1001C000160190931701A0931801B09319018FB7EE
:1001D00080688FBF0895109281000895EF92FF927A
:1001E0001F93CF93DF9310E043C0C12FD0E0CE0127
:1001F000880F991F8C0F9D1F880F991F880F991FBB
:10020000FC01E35EFE4F46815781608571858281E6
:100210009381A481B581481759076A077B0778F055
:100220007F01DF010284F385E02D8D919C9109957A
:10023000F7019183808316821782108611869E01B2
:10024000220F331FC9018C0F9D1F880F991F880F24
:10025000991FFC01E35EFE4F86819781A085B185E1
:100260000196A11DB11D86839783A087B1871F5F6B
:10027000133008F4BACFDF91CF911F91FF90EF9028
:1002800008951F920F920FB60F9211240BB60F9282
:100290002F933F934F935F936F937F938F939F938E
:1002A000AF93BF93EF93FF93809116019091170145
:1002B000A0911801B09119010197A109B10980938A
:1002C000160190931701A0931801B0931901892B7F
:1002D0008A2B8B2B91F40E94EE0080910201909169
:1002E0000301A0910401B091050180931601909340
:1002F0001701A0931801B0931901FF91EF91BF91DD
:10030000AF919F918F917F916F915F914F913F91AD
:100310002F910F900BBE0F900FBE0F901F9018954E
:10032000609302017093030180930401909305018F
:10033000609316017093170180931801909319012F
:1003400008958FEF84B915B8EDE1F1E011821082C4
:1003500088EE93E0A0E0B0E082839383A483B5832A
:1003600086839783A087B18728E730E03387228789
:100370001586148686879787A08BB18B828B938B8B
:10038000A48BB58B27E930E0378B268B118E108E2E
:10039000828F938FA48FB58F868F978FA0A3B1A3E1
:1003A00086EB90E093A382A361E070E080E090E0B0
:0E03B0000E9490010E94C700FFCFF894FFCF7B
:1003BE0008040100000000000002000000006700B9
:0603CE0000000000010325
:00000001FF
