:100000000C9446000C9465000C9465000C946500FB
:100010000C9465000C9465000C9465000C946500CC
:100020000C9465000C9465000C9465000C946500BC
:100030000C9465000C9469010C9465000C946500A7
:100040000C9465000C9465000C9465000C9465009C
:100050000C9465000C9465000C9465000C9465008C
:100060000C9465000C9465000C9465000C9465007C
:100070000C9465000C9465000C9465000C9465006C
:100080000C9465000C9465000C94650011241FBE4F
:10009000CFEFD0E4DEBFCDBF11E0A0E0B1E0E6E4F9
:1000A000F4E000E00BBF02C007900D92A831B10749
:1000B000D9F711E0A8E1B1E001C01D92A535B10763
:1000C000E1F70E94C9010C9421020C940000CF9327
:1000D000C82F8A3019F48DE00E9467009091C0000B
:1000E00095FFFCCFC093C60080E090E0CF910895CB
:1000F000029718F481E090E002C080E090E0009761
:1001000021F08130910529F00EC024E020930201F6
:10011000089520910201243011F0220F01C021E046
:1001200020930201089524E020930201089502978C
:1001300018F481E090E002C080E090E0009721F0A8
:100140008130910529F00EC028E020930101089527
:1001500020910101222311F020E001C028E020932A
:100160000101089528E0209301010895029718F4F1
:1001700081E090E002C080E090E0009721F08130C3
:10018000910529F014C020E120930001089520B1C9
:10019000322F347022FD08C020910001211101C0CE
:1001A00030E130930001089510920001089520E19C
:1001B000209300010895029718F481E090E002C0B6
:1001C00080E090E08130910549F430910201209166
:1001D0000101232B30910001232B25B908958BE0D9
:1001E000809381008DE790E0909389008093880050
:1001F00082E080936F0010928500109284008091BD
:10020000030190910401A0910501B0910601809332
:10021000180190931901A0931A01B0931B018FB795
:1002200080688FBF0895109281000895EF92FF9229
:100230001F93CF93DF9310E043C0C12FD0E0CE01D6
:10024000880F991F8C0F9D1F880F991F880F991F6A
:10025000FC01E15EFE4F4681578160857185828198
:100260009381A481B581481759076A077B0778F005
:100270007F01DF010284F385E02D8D919C9109952A
:10028000F7019183808316821782108611869E0162
:10029000220F331FC9018C0F9D1F880F991F880FD4
:1002A000991FFC01E15EFE4F86819781A085B18593
:1002B0000196A11DB11D86839783A087B1871F5F1B
:1002C000143008F4BACFDF91CF911F91FF90EF90D7
:1002D00008951F920F920FB60F9211240BB60F9232
:1002E0002F933F934F935F936F937F938F939F933E
:1002F000AF93BF93EF93FF938091180190911901F1
:10030000A0911A01B0911B010197A109B109809335
:10031000180190931901A0931A01B0931B01892B26
:100320008A2B8B2B91F40E941601809103019091EE
:100330000401A0910501B0910601809318019093EA
:100340001901A0931A01B0931B01FF91EF91BF9186
:10035000AF919F918F917F916F915F914F913F915D
:100360002F910F900BBE0F900FBE0F901F901895FE
:10037000609303017093040180930501909306013B
:10038000609318017093190180931A0190931B01D7
:10039000089511B88FEF82B984B915B8EFE1F1E093
:1003A000118210828CE291E0A0E0B0E0828393831E
:1003B000A483B58386839783A087B18788E790E07D
:1003C000938782871586148688EE93E0A0E0B0E0DC
:1003D00086879787A08BB18B828B938BA48BB58BF1
:1003E00087E990E0978B868B118E108E82E090E0EB
:1003F000A0E0B0E0828F938FA48FB58F868F978F08
:10040000A0A3B1A386EB90E093A382A315A214A2AC
:1004100081E090E0A0E0B0E086A397A3A0A7B1A7F9
:1004200082A793A7A4A7B5A78BED90E097A786A76F
:1004300061E070E080E090E00E94B8010E94EF006F
:06044000FFCFF894FFCF8E
:100446001008040100000000000002000000006720
:08045600000000000001040099
:00000001FF
